{"abi":[{"type":"constructor","inputs":[{"name":"_manager","type":"address","internalType":"contract IPoolManager"},{"name":"_swapRouter","type":"address","internalType":"contract PoolSwapTest"}],"stateMutability":"nonpayable"},{"type":"function","name":"BATCH_DISPUTED_MAGIC_VALUE","inputs":[],"outputs":[{"name":"","type":"bytes4","internalType":"bytes4"}],"stateMutability":"view"},{"type":"function","name":"BATCH_RETENTION_PERIOD","inputs":[],"outputs":[{"name":"","type":"uint256","internalType":"uint256"}],"stateMutability":"view"},{"type":"function","name":"STAKE_AMOUNT","inputs":[],"outputs":[{"name":"","type":"uint256","internalType":"uint256"}],"stateMutability":"view"},{"type":"function","name":"addBatch","inputs":[{"name":"key","type":"tuple","internalType":"struct PoolKey","components":[{"name":"currency0","type":"address","internalType":"Currency"},{"name":"currency1","type":"address","internalType":"Currency"},{"name":"fee","type":"uint24","internalType":"uint24"},{"name":"tickSpacing","type":"int24","internalType":"int24"},{"name":"hooks","type":"address","internalType":"contract IHooks"}]},{"name":"newBatch","type":"tuple","internalType":"struct ClvrSlashing.RetainedBatch","components":[{"name":"creator","type":"address","internalType":"address"},{"name":"p0","type":"uint256","internalType":"uint256"},{"name":"reserveX","type":"uint256","internalType":"uint256"},{"name":"reserveY","type":"uint256","internalType":"uint256"},{"name":"swaps","type":"tuple[]","internalType":"struct ClvrHook.SwapParamsExtended[]","components":[{"name":"sender","type":"address","internalType":"address"},{"name":"recepient","type":"address","internalType":"address"},{"name":"params","type":"tuple","internalType":"struct IPoolManager.SwapParams","components":[{"name":"zeroForOne","type":"bool","internalType":"bool"},{"name":"amountSpecified","type":"int256","internalType":"int256"},{"name":"sqrtPriceLimitX96","type":"uint160","internalType":"uint160"}]}]},{"name":"disputed","type":"bool","internalType":"bool"}]}],"outputs":[],"stateMutability":"nonpayable"},{"type":"function","name":"afterAddLiquidity","inputs":[{"name":"","type":"address","internalType":"address"},{"name":"","type":"tuple","internalType":"struct PoolKey","components":[{"name":"currency0","type":"address","internalType":"Currency"},{"name":"currency1","type":"address","internalType":"Currency"},{"name":"fee","type":"uint24","internalType":"uint24"},{"name":"tickSpacing","type":"int24","internalType":"int24"},{"name":"hooks","type":"address","internalType":"contract IHooks"}]},{"name":"","type":"tuple","internalType":"struct IPoolManager.ModifyLiquidityParams","components":[{"name":"tickLower","type":"int24","internalType":"int24"},{"name":"tickUpper","type":"int24","internalType":"int24"},{"name":"liquidityDelta","type":"int256","internalType":"int256"},{"name":"salt","type":"bytes32","internalType":"bytes32"}]},{"name":"","type":"int256","internalType":"BalanceDelta"},{"name":"","type":"int256","internalType":"BalanceDelta"},{"name":"","type":"bytes","internalType":"bytes"}],"outputs":[{"name":"","type":"bytes4","internalType":"bytes4"},{"name":"","type":"int256","internalType":"BalanceDelta"}],"stateMutability":"nonpayable"},{"type":"function","name":"afterDonate","inputs":[{"name":"","type":"address","internalType":"address"},{"name":"","type":"tuple","internalType":"struct PoolKey","components":[{"name":"currency0","type":"address","internalType":"Currency"},{"name":"currency1","type":"address","internalType":"Currency"},{"name":"fee","type":"uint24","internalType":"uint24"},{"name":"tickSpacing","type":"int24","internalType":"int24"},{"name":"hooks","type":"address","internalType":"contract IHooks"}]},{"name":"","type":"uint256","internalType":"uint256"},{"name":"","type":"uint256","internalType":"uint256"},{"name":"","type":"bytes","internalType":"bytes"}],"outputs":[{"name":"","type":"bytes4","internalType":"bytes4"}],"stateMutability":"nonpayable"},{"type":"function","name":"afterInitialize","inputs":[{"name":"","type":"address","internalType":"address"},{"name":"","type":"tuple","internalType":"struct PoolKey","components":[{"name":"currency0","type":"address","internalType":"Currency"},{"name":"currency1","type":"address","internalType":"Currency"},{"name":"fee","type":"uint24","internalType":"uint24"},{"name":"tickSpacing","type":"int24","internalType":"int24"},{"name":"hooks","type":"address","internalType":"contract IHooks"}]},{"name":"","type":"uint160","internalType":"uint160"},{"name":"","type":"int24","internalType":"int24"}],"outputs":[{"name":"","type":"bytes4","internalType":"bytes4"}],"stateMutability":"nonpayable"},{"type":"function","name":"afterRemoveLiquidity","inputs":[{"name":"","type":"address","internalType":"address"},{"name":"","type":"tuple","internalType":"struct PoolKey","components":[{"name":"currency0","type":"address","internalType":"Currency"},{"name":"currency1","type":"address","internalType":"Currency"},{"name":"fee","type":"uint24","internalType":"uint24"},{"name":"tickSpacing","type":"int24","internalType":"int24"},{"name":"hooks","type":"address","internalType":"contract IHooks"}]},{"name":"","type":"tuple","internalType":"struct IPoolManager.ModifyLiquidityParams","components":[{"name":"tickLower","type":"int24","internalType":"int24"},{"name":"tickUpper","type":"int24","internalType":"int24"},{"name":"liquidityDelta","type":"int256","internalType":"int256"},{"name":"salt","type":"bytes32","internalType":"bytes32"}]},{"name":"","type":"int256","internalType":"BalanceDelta"},{"name":"","type":"int256","internalType":"BalanceDelta"},{"name":"","type":"bytes","internalType":"bytes"}],"outputs":[{"name":"","type":"bytes4","internalType":"bytes4"},{"name":"","type":"int256","internalType":"BalanceDelta"}],"stateMutability":"nonpayable"},{"type":"function","name":"afterSwap","inputs":[{"name":"","type":"address","internalType":"address"},{"name":"","type":"tuple","internalType":"struct PoolKey","components":[{"name":"currency0","type":"address","internalType":"Currency"},{"name":"currency1","type":"address","internalType":"Currency"},{"name":"fee","type":"uint24","internalType":"uint24"},{"name":"tickSpacing","type":"int24","internalType":"int24"},{"name":"hooks","type":"address","internalType":"contract IHooks"}]},{"name":"","type":"tuple","internalType":"struct IPoolManager.SwapParams","components":[{"name":"zeroForOne","type":"bool","internalType":"bool"},{"name":"amountSpecified","type":"int256","internalType":"int256"},{"name":"sqrtPriceLimitX96","type":"uint160","internalType":"uint160"}]},{"name":"","type":"int256","internalType":"BalanceDelta"},{"name":"","type":"bytes","internalType":"bytes"}],"outputs":[{"name":"","type":"bytes4","internalType":"bytes4"},{"name":"","type":"int128","internalType":"int128"}],"stateMutability":"nonpayable"},{"type":"function","name":"beforeAddLiquidity","inputs":[{"name":"","type":"address","internalType":"address"},{"name":"","type":"tuple","internalType":"struct PoolKey","components":[{"name":"currency0","type":"address","internalType":"Currency"},{"name":"currency1","type":"address","internalType":"Currency"},{"name":"fee","type":"uint24","internalType":"uint24"},{"name":"tickSpacing","type":"int24","internalType":"int24"},{"name":"hooks","type":"address","internalType":"contract IHooks"}]},{"name":"","type":"tuple","internalType":"struct IPoolManager.ModifyLiquidityParams","components":[{"name":"tickLower","type":"int24","internalType":"int24"},{"name":"tickUpper","type":"int24","internalType":"int24"},{"name":"liquidityDelta","type":"int256","internalType":"int256"},{"name":"salt","type":"bytes32","internalType":"bytes32"}]},{"name":"","type":"bytes","internalType":"bytes"}],"outputs":[{"name":"","type":"bytes4","internalType":"bytes4"}],"stateMutability":"nonpayable"},{"type":"function","name":"beforeDonate","inputs":[{"name":"","type":"address","internalType":"address"},{"name":"key","type":"tuple","internalType":"struct PoolKey","components":[{"name":"currency0","type":"address","internalType":"Currency"},{"name":"currency1","type":"address","internalType":"Currency"},{"name":"fee","type":"uint24","internalType":"uint24"},{"name":"tickSpacing","type":"int24","internalType":"int24"},{"name":"hooks","type":"address","internalType":"contract IHooks"}]},{"name":"","type":"uint256","internalType":"uint256"},{"name":"","type":"uint256","internalType":"uint256"},{"name":"data","type":"bytes","internalType":"bytes"}],"outputs":[{"name":"","type":"bytes4","internalType":"bytes4"}],"stateMutability":"nonpayable"},{"type":"function","name":"beforeInitialize","inputs":[{"name":"","type":"address","internalType":"address"},{"name":"","type":"tuple","internalType":"struct PoolKey","components":[{"name":"currency0","type":"address","internalType":"Currency"},{"name":"currency1","type":"address","internalType":"Currency"},{"name":"fee","type":"uint24","internalType":"uint24"},{"name":"tickSpacing","type":"int24","internalType":"int24"},{"name":"hooks","type":"address","internalType":"contract IHooks"}]},{"name":"","type":"uint160","internalType":"uint160"}],"outputs":[{"name":"","type":"bytes4","internalType":"bytes4"}],"stateMutability":"nonpayable"},{"type":"function","name":"beforeRemoveLiquidity","inputs":[{"name":"","type":"address","internalType":"address"},{"name":"","type":"tuple","internalType":"struct PoolKey","components":[{"name":"currency0","type":"address","internalType":"Currency"},{"name":"currency1","type":"address","internalType":"Currency"},{"name":"fee","type":"uint24","internalType":"uint24"},{"name":"tickSpacing","type":"int24","internalType":"int24"},{"name":"hooks","type":"address","internalType":"contract IHooks"}]},{"name":"","type":"tuple","internalType":"struct IPoolManager.ModifyLiquidityParams","components":[{"name":"tickLower","type":"int24","internalType":"int24"},{"name":"tickUpper","type":"int24","internalType":"int24"},{"name":"liquidityDelta","type":"int256","internalType":"int256"},{"name":"salt","type":"bytes32","internalType":"bytes32"}]},{"name":"","type":"bytes","internalType":"bytes"}],"outputs":[{"name":"","type":"bytes4","internalType":"bytes4"}],"stateMutability":"nonpayable"},{"type":"function","name":"beforeSwap","inputs":[{"name":"sender","type":"address","internalType":"address"},{"name":"key","type":"tuple","internalType":"struct PoolKey","components":[{"name":"currency0","type":"address","internalType":"Currency"},{"name":"currency1","type":"address","internalType":"Currency"},{"name":"fee","type":"uint24","internalType":"uint24"},{"name":"tickSpacing","type":"int24","internalType":"int24"},{"name":"hooks","type":"address","internalType":"contract IHooks"}]},{"name":"params","type":"tuple","internalType":"struct IPoolManager.SwapParams","components":[{"name":"zeroForOne","type":"bool","internalType":"bool"},{"name":"amountSpecified","type":"int256","internalType":"int256"},{"name":"sqrtPriceLimitX96","type":"uint160","internalType":"uint160"}]},{"name":"data","type":"bytes","internalType":"bytes"}],"outputs":[{"name":"","type":"bytes4","internalType":"bytes4"},{"name":"","type":"int256","internalType":"BeforeSwapDelta"},{"name":"","type":"uint24","internalType":"uint24"}],"stateMutability":"nonpayable"},{"type":"function","name":"disputeBatch","inputs":[{"name":"key","type":"tuple","internalType":"struct PoolKey","components":[{"name":"currency0","type":"address","internalType":"Currency"},{"name":"currency1","type":"address","internalType":"Currency"},{"name":"fee","type":"uint24","internalType":"uint24"},{"name":"tickSpacing","type":"int24","internalType":"int24"},{"name":"hooks","type":"address","internalType":"contract IHooks"}]},{"name":"batchIndex","type":"uint256","internalType":"uint256"},{"name":"betterReordering","type":"uint256[]","internalType":"uint256[]"}],"outputs":[],"stateMutability":"nonpayable"},{"type":"function","name":"getCurrentPrice","inputs":[{"name":"key","type":"tuple","internalType":"struct PoolKey","components":[{"name":"currency0","type":"address","internalType":"Currency"},{"name":"currency1","type":"address","internalType":"Currency"},{"name":"fee","type":"uint24","internalType":"uint24"},{"name":"tickSpacing","type":"int24","internalType":"int24"},{"name":"hooks","type":"address","internalType":"contract IHooks"}]}],"outputs":[{"name":"","type":"uint256","internalType":"uint256"}],"stateMutability":"view"},{"type":"function","name":"getCurrentReserves","inputs":[{"name":"key","type":"tuple","internalType":"struct PoolKey","components":[{"name":"currency0","type":"address","internalType":"Currency"},{"name":"currency1","type":"address","internalType":"Currency"},{"name":"fee","type":"uint24","internalType":"uint24"},{"name":"tickSpacing","type":"int24","internalType":"int24"},{"name":"hooks","type":"address","internalType":"contract IHooks"}]}],"outputs":[{"name":"","type":"uint256","internalType":"uint256"},{"name":"","type":"uint256","internalType":"uint256"}],"stateMutability":"view"},{"type":"function","name":"getHookPermissions","inputs":[],"outputs":[{"name":"","type":"tuple","internalType":"struct Hooks.Permissions","components":[{"name":"beforeInitialize","type":"bool","internalType":"bool"},{"name":"afterInitialize","type":"bool","internalType":"bool"},{"name":"beforeAddLiquidity","type":"bool","internalType":"bool"},{"name":"afterAddLiquidity","type":"bool","internalType":"bool"},{"name":"beforeRemoveLiquidity","type":"bool","internalType":"bool"},{"name":"afterRemoveLiquidity","type":"bool","internalType":"bool"},{"name":"beforeSwap","type":"bool","internalType":"bool"},{"name":"afterSwap","type":"bool","internalType":"bool"},{"name":"beforeDonate","type":"bool","internalType":"bool"},{"name":"afterDonate","type":"bool","internalType":"bool"},{"name":"beforeSwapReturnDelta","type":"bool","internalType":"bool"},{"name":"afterSwapReturnDelta","type":"bool","internalType":"bool"},{"name":"afterAddLiquidityReturnDelta","type":"bool","internalType":"bool"},{"name":"afterRemoveLiquidityReturnDelta","type":"bool","internalType":"bool"}]}],"stateMutability":"pure"},{"type":"function","name":"getScheduledSwaps","inputs":[{"name":"key","type":"tuple","internalType":"struct PoolKey","components":[{"name":"currency0","type":"address","internalType":"Currency"},{"name":"currency1","type":"address","internalType":"Currency"},{"name":"fee","type":"uint24","internalType":"uint24"},{"name":"tickSpacing","type":"int24","internalType":"int24"},{"name":"hooks","type":"address","internalType":"contract IHooks"}]}],"outputs":[{"name":"","type":"tuple[]","internalType":"struct ClvrHook.SwapParamsExtended[]","components":[{"name":"sender","type":"address","internalType":"address"},{"name":"recepient","type":"address","internalType":"address"},{"name":"params","type":"tuple","internalType":"struct IPoolManager.SwapParams","components":[{"name":"zeroForOne","type":"bool","internalType":"bool"},{"name":"amountSpecified","type":"int256","internalType":"int256"},{"name":"sqrtPriceLimitX96","type":"uint160","internalType":"uint160"}]}]}],"stateMutability":"view"},{"type":"function","name":"isStakedScheduler","inputs":[{"name":"key","type":"tuple","internalType":"struct PoolKey","components":[{"name":"currency0","type":"address","internalType":"Currency"},{"name":"currency1","type":"address","internalType":"Currency"},{"name":"fee","type":"uint24","internalType":"uint24"},{"name":"tickSpacing","type":"int24","internalType":"int24"},{"name":"hooks","type":"address","internalType":"contract IHooks"}]},{"name":"scheduler","type":"address","internalType":"address"}],"outputs":[{"name":"","type":"bool","internalType":"bool"}],"stateMutability":"view"},{"type":"function","name":"nextSwapKey","inputs":[{"name":"","type":"bytes32","internalType":"PoolId"}],"outputs":[{"name":"","type":"uint256","internalType":"uint256"}],"stateMutability":"view"},{"type":"function","name":"poolManager","inputs":[],"outputs":[{"name":"","type":"address","internalType":"contract IPoolManager"}],"stateMutability":"view"},{"type":"function","name":"retainedBatches","inputs":[{"name":"","type":"bytes32","internalType":"PoolId"},{"name":"","type":"uint256","internalType":"uint256"}],"outputs":[{"name":"creator","type":"address","internalType":"address"},{"name":"p0","type":"uint256","internalType":"uint256"},{"name":"reserveX","type":"uint256","internalType":"uint256"},{"name":"reserveY","type":"uint256","internalType":"uint256"},{"name":"disputed","type":"bool","internalType":"bool"}],"stateMutability":"view"},{"type":"function","name":"stake","inputs":[{"name":"key","type":"tuple","internalType":"struct PoolKey","components":[{"name":"currency0","type":"address","internalType":"Currency"},{"name":"currency1","type":"address","internalType":"Currency"},{"name":"fee","type":"uint24","internalType":"uint24"},{"name":"tickSpacing","type":"int24","internalType":"int24"},{"name":"hooks","type":"address","internalType":"contract IHooks"}]},{"name":"scheduler","type":"address","internalType":"address"}],"outputs":[],"stateMutability":"payable"},{"type":"function","name":"stakedSchedulers","inputs":[{"name":"","type":"bytes32","internalType":"PoolId"},{"name":"","type":"address","internalType":"address"}],"outputs":[{"name":"","type":"bool","internalType":"bool"}],"stateMutability":"view"},{"type":"function","name":"swapParams","inputs":[{"name":"","type":"bytes32","internalType":"PoolId"},{"name":"","type":"uint256","internalType":"uint256"}],"outputs":[{"name":"sender","type":"address","internalType":"address"},{"name":"recepient","type":"address","internalType":"address"},{"name":"params","type":"tuple","internalType":"struct IPoolManager.SwapParams","components":[{"name":"zeroForOne","type":"bool","internalType":"bool"},{"name":"amountSpecified","type":"int256","internalType":"int256"},{"name":"sqrtPriceLimitX96","type":"uint160","internalType":"uint160"}]}],"stateMutability":"view"},{"type":"function","name":"unlockCallback","inputs":[{"name":"data","type":"bytes","internalType":"bytes"}],"outputs":[{"name":"","type":"bytes","internalType":"bytes"}],"stateMutability":"nonpayable"},{"type":"function","name":"unstake","inputs":[{"name":"key","type":"tuple","internalType":"struct PoolKey","components":[{"name":"currency0","type":"address","internalType":"Currency"},{"name":"currency1","type":"address","internalType":"Currency"},{"name":"fee","type":"uint24","internalType":"uint24"},{"name":"tickSpacing","type":"int24","internalType":"int24"},{"name":"hooks","type":"address","internalType":"contract IHooks"}]}],"outputs":[],"stateMutability":"nonpayable"},{"type":"event","name":"BatchCompleted","inputs":[{"name":"poolId","type":"bytes32","indexed":false,"internalType":"PoolId"}],"anonymous":false},{"type":"event","name":"BatchDisputed","inputs":[{"name":"poolId","type":"bytes32","indexed":true,"internalType":"PoolId"},{"name":"batchIndex","type":"uint256","indexed":false,"internalType":"uint256"},{"name":"creator","type":"address","indexed":false,"internalType":"address"},{"name":"disputer","type":"address","indexed":false,"internalType":"address"}],"anonymous":false},{"type":"event","name":"BatchNotDisputed","inputs":[{"name":"poolId","type":"bytes32","indexed":true,"internalType":"PoolId"},{"name":"batchIndex","type":"uint256","indexed":false,"internalType":"uint256"},{"name":"creator","type":"address","indexed":false,"internalType":"address"},{"name":"disputer","type":"address","indexed":false,"internalType":"address"}],"anonymous":false},{"type":"event","name":"StakedScheduler","inputs":[{"name":"poolId","type":"bytes32","indexed":true,"internalType":"PoolId"},{"name":"scheduler","type":"address","indexed":true,"internalType":"address"}],"anonymous":false},{"type":"event","name":"SwapScheduled","inputs":[{"name":"poolId","type":"bytes32","indexed":false,"internalType":"PoolId"},{"name":"sender","type":"address","indexed":false,"internalType":"address"}],"anonymous":false},{"type":"event","name":"UnstakedScheduler","inputs":[{"name":"poolId","type":"bytes32","indexed":true,"internalType":"PoolId"},{"name":"scheduler","type":"address","indexed":true,"internalType":"address"}],"anonymous":false},{"type":"error","name":"HookNotImplemented","inputs":[]},{"type":"error","name":"InvalidPool","inputs":[]},{"type":"error","name":"LockFailure","inputs":[]},{"type":"error","name":"NotPoolManager","inputs":[]},{"type":"error","name":"NotSelf","inputs":[]}],"bytecode":{"object":"0x60a06040523461031157604051601f6137d538819003918201601f19168301916001600160401b0383118484101761023d578084926040948552833981010312610311578051906001600160a01b038216820361031157602001516001600160a01b0381169190829003610311576080525f6101a061007c610315565b8281528260208201528260408201528260608201528260808201528260a08201528260c08201528260e0820152826101008201528261012082015282610140820152826101608201528261018082015201525f6101a06100da610315565b8281528260208201528260408201528260608201528260808201528260a0820152600160c08201528260e0820152600161010082015282610120820152600161014082015282610160820152826101808201520152612000301615801590610304575b80156102f7575b80156102ea575b80156102dd575b80156102d0575b80156102c0575b80156102b4575b80156102a4575b8015610298575b8015610288575b801561027c575b8015610270575b8015610264575b61025157604051610b55808201906001600160401b0382118383101761023d576040918391612c8083395f81525f60208201520301905ff080156102325760018060a01b031660018060a01b0319600254161760025560018060a01b0319600554161760055560405161294a908161033682396080518181816101ec0152818161057901528181610cce01528181611b4c01528181611cc80152611fcf0152f35b6040513d5f823e3d90fd5b634e487b7160e01b5f52604160045260245ffd5b630732d7b560e51b5f523060045260245ffd5b50600130161515610191565b5060023016151561018a565b50600430161515610183565b506008301615156001141561017c565b50601030161515610175565b506020301615156001141561016e565b50604030161515610167565b5060803016151560011415610160565b5061010030161515610159565b5061020030161515610152565b506104003016151561014b565b5061080030161515610144565b506110003016151561013d565b5f80fd5b604051906101c082016001600160401b0381118382101761023d5760405256fe60806040526004361015610011575f80fd5b5f803560e01c806321d0ee701461135257806323698ab314611357578063259982e514611352578063276ed7c71461126e578063291f8b211461123e57806331e302251461121b5780633597725814610f645780633ddbc2ea14610f485780633df56d0014610f1e578063428d111614610ee8578063575e24b414610e645780636aa4e07414610d6c5780636c2bbe7e14610b885780636fe7e6eb14610d3057806391dd734614610c9a5780639810439b14610b8d5780639f063efc14610b88578063a4117d9814610b33578063b47b2fb114610acb578063b6a8b0fa1461049c578063b90fbb1b14610428578063c18526d414610405578063c4e833ce1461029b578063db6a255f1461021b578063dc4c90d3146101d6578063dc98354e14610197578063e1b4af69146101735763faf5625f1461014e575f80fd5b346101705780600319360112610170576020604051670de0b6b3a76400008152f35b80fd5b5034610170576004906101853661176b565b5050630a85dc2960e01b855250505050fd5b50346101705760e0366003190112610170576101b161141d565b5060a0366023190112610170576004906101c9611618565b50630a85dc2960e01b8152fd5b50346101705780600319360112610170576040517f00000000000000000000000000000000000000000000000000000000000000006001600160a01b03168152602090f35b503461017057604060a09161022f366117c6565b908252600360205282822090825260205220610299600180841b03825416916102666002600180871b036001840154169201611803565b60408051948552602080860193909352815115158582015291810151606085015201516001600160a01b03166080830152565bf35b5034610170578060031936011261017057806101c0916101a06040516102c08161159c565b8281528260208201528260408201528260608201528260808201528260a08201528260c08201528260e0820152826101008201528261012082015282610140820152826101608201528261018082015201526040519061031f8261159c565b808252602082019181835260408101828152606082018381526080830184815260a0840185815260c085016001815260e086019087825261010087019260018452610120880194898652610140890196600188526101608a01988b8a526101a06101808c019b8d8d52019b808d5260206040519e8f92835251151591015251151560408d015251151560608c015251151560808b015251151560a08a015251151560c089015251151560e08801525115156101008701525115156101208601525115156101408501525115156101608401525115156101808301525115156101a0820152f35b503461017057806003193601126101705760405163763d9ef360e01b8152602090f35b503461017057610437366117c6565b919081526001602052604081209060058310156101705760a061045a84846117dc565b50600180831b0381541690600181015490600281015460ff60056003840154930154169260405194855260208501526040840152606083015215156080820152f35b5034610170576104ab3661176b565b9394509150506104c36104be3285611f3c565b61233e565b60a06104cf36856118d0565b20918101602082820312610ac75781356001600160401b038111610ac3576104f7920161166e565b81845260046020526040842054815103610a58576105158151611934565b91845b82518110156105685760019082875260036020526040872061053a82866119ae565b51885260205261054c604088206119c2565b61055682876119ae565b5261056181866119ae565b5001610518565b5091929091906020810190608081017f0000000000000000000000000000000000000000000000000000000000000000604083016001600160a01b038216606085018a5b895181101561082e5780846105c28e938e6119ae565b5160208b8b6106a68c6106926040870151604051928b888501528784526105ea6040856115d3565b604051633cf3645360e21b8152998a97889762ffffff9261063c9290916001600160a01b039061061990611433565b1660048b01526001600160a01b039061063190611433565b1660248a0152611839565b16604487015261064b8d611739565b60020b60648701526001600160a01b039061066590611433565b1660848601528051151560a4860152602081015160c4860152604001516001600160a01b031660e4850152565b610120610104840152610124830190611747565b0381878a5af18015610823578b928b916107e8575b5093610753926040926106d96106d26001986119fb565b308d6127db565b908d6106f08d6106e8866119fb565b9030906127db565b928d8682126107cc575b8685126107a8575b868213610781575b915050848313610759575b505050508c815260036020528d61072f85848420926119ae565b5182526020522060045f918281558260018201558260028201558260038201550155565b016105ac565b610765610778946119fb565b9160208a8060a01b0391015116916128ba565b8b5f808b610715565b61078d6107a0936119fb565b908b8060a01b03602086015116916128ba565b8d5f8d61070a565b6107c6906107b5876119fb565b6107be87611f49565b913091612857565b8d610702565b6107e2906107d9846119fb565b6107be84611f49565b8d6106fa565b9250506020823d821161081b575b81610803602093836115d3565b81010312610817578a9150896107536106bb565b8380fd5b3d91506107f6565b6040513d86823e3d90fd5b888c888d838352600460205282604081205561084982611c7a565b9261085383611c7a565b936040519461086186611552565b32865260208601908152604086019182526060860192670de0b6b3a764000084526080870194855260a061089c8189019783895236906118d0565b20815260016020526040812096815b60048110610a0a57506018880191806109f657505181546001600160a01b0319166001600160a01b039190911617905551601986015551601a85015551601b84015551805190601c8401906020906109038484611d9e565b01905f5260205f205f915b83831061096f577f33b77f6ea7f6dd40994170173f7fcb46b9272703bfe293c39885bb945dd31c7d60208861095689601d8a51151591019060ff801983541691151516179055565b604051908152a1604051635b54587d60e11b8152602090f35b8051805183546001600160a01b039182166001600160a01b03199182161785556020808401516001808801805492861692851692909217909155604094850151805160028901805460ff191691151560ff1691909117905580830151600389015590940151600487018054919094169216919091179091559301926005909201910161090e565b634e487b7160e01b81526004819052602490fd5b60018101808211610a445790610a3e8a600480610a3485610a2d600198866117dc565b50946117dc565b5092019101611e1e565b016108ab565b634e487b7160e01b84526011600452602484fd5b60405162461bcd60e51b815260206004820152603e60248201527f5377617020496473206c656e67746820646f6573206e6f74206d61746368207460448201527f68652073697a65206f6620746865207363686564756c656420737761707300006064820152608490fd5b8580fd5b8480fd5b50346101705761016036600319011261017057610ae661141d565b5060a03660231901126101705760603660c319011261017057610144356001600160401b038111610b2f5790610b2160049236908401611447565b5050630a85dc2960e01b8152fd5b5080fd5b503461017057604036600319011261017057602435906001600160a01b038216820361017057604090600435815280602052209060018060a01b03165f52602052602060ff60405f2054166040519015158152f35b6116cb565b50346101705760a036600319011261017057610bab6104be33611f0b565b805b60058110610be35750610bbf336126e8565b80808080670de0b6b3a76400003382f115610bd75780f35b604051903d90823e3d90fd5b60a0610bee36611849565b2082526001602052610c0381604084206117dc565b50546001600160a01b03163314610c1c57600101610bad565b60405162461bcd60e51b815260206004820152604a60248201527f5363686564756c657220686173206120726563656e742062617463682c20776160448201527f697420666f7220697420746f20626520646973706c61636564206279206e65776064820152696572206261746368657360b01b608482015260a490fd5b5034610170576020366003190112610170576004356001600160401b038111610b2f57610ccb903690600401611447565b917f00000000000000000000000000000000000000000000000000000000000000006001600160a01b03163303610d2157610d1d610d09848461275d565b604051918291602083526020830190611747565b0390f35b63570c108560e11b8152600490fd5b50346101705761010036600319011261017057610d4b61141d565b5060a036602319011261017057600490610d63611618565b506101c9611729565b503461017057366003190160e08112610b2f5760a0136101705760a43560c4356001600160401b038111610e6057610da890369060040161166e565b610db4600583106122ad565b60a0610dbf36611849565b2083526001602052610de560ff6005610ddb85604088206117dc565b50015416156122f9565b63763d9ef360e01b906001600160e01b031990610e0290846123a0565b1614610e3f575b610e2c610e3c9160a0610e1b36611849565b2084526001602052604084206117dc565b50546001600160a01b03166126e8565b80f35b81808080670de0b6b3a76400003382f1610e095750604051903d90823e3d90fd5b8280fd5b50346101705761014036600319011261017057610e7f61141d565b9060a03660231901126101705760603660c31901126101705761012435906001600160401b03821161017057606062ffffff610ec885610ec23660048801611447565b91611f59565b906040939293519363ffffffff60e01b1684526020840152166040820152f35b503461017057366003190160c08112610b2f5760a013610170576020610f14610f0f611407565b611f0b565b6040519015158152f35b50346101705760203660031901126101705760406020916004358152600483522054604051908152f35b5034610170578060031936011261017057602060405160058152f35b3461121757366003190160c081126112175760a0136112175760a4356001600160401b0381116112175760c0600319823603011261121757604051610fa881611552565b610fb482600401611433565b8152602081019160248101358352604082016044820135815260608301906064830135825260848301356001600160401b0381116112175783019236602385011215611217576004840135611008816115f4565b9461101660405196876115d3565b8186526020600460a08289019402830101019036821161121757602401915b8183106111c55750505060a461105291608087019586520161160b565b9460a0850195865260a06110673660046118d0565b205f52600160205260405f20945f5b600481106111825750516018860180546001600160a01b0319166001600160a01b039290921691909117905551601985015551601a84015551601b83015551805190601c8301906020906110ca8484611d9e565b01905f5260205f205f915b8383106110fb576110f985601d8851151591019060ff801983541691151516179055565b005b8051805183546001600160a01b039182166001600160a01b03199182161785556020808401516001808801805492861692851692909217909155604094850151805160028901805460ff191691151560ff169190911790558083015160038901559094015160048701805491909416921691909117909155930192600590920191016110d5565b60018101908181116111b1576111ab61119d6001938a6117dc565b50600480610a34858d6117dc565b01611076565b634e487b7160e01b5f52601160045260245ffd5b60a08336031261121757602060a0916040516111e081611581565b6111e986611433565b81526111f6838701611433565b83820152611207366040880161162e565b6040820152815201920191611035565b5f80fd5b346112175760a0366003190112611217576020611236611afe565b604051908152f35b346112175760a0366003190112611217576040611259611afe565b8151908152670de0b6b3a76400006020820152f35b366003190160c081126112175760a0136112175761128a611407565b670de0b6b3a7640000340361130d5760a06112a436611849565b205f908152602081815260408083206001600160a01b03851684529091529020805460ff1916600117905560a06112da36611849565b206001600160a01b03909116907f9d80a173f8f04b2e4d99f991eaa8f3bf163fe36775660f87d4f7a93379039de85f80a3005b60405162461bcd60e51b815260206004820152601960248201527f4d757374207374616b65206174206c65617374203120455448000000000000006044820152606490fd5b611474565b346112175760a03660031901126112175760a061137336611849565b205f52600460205261138860405f2054611934565b5f5b60a061139536611849565b205f52600460205260405f20548110156113f15760019060a06113b736611849565b205f52600360205260405f20815f526020526113d560405f206119c2565b6113df82856119ae565b526113ea81846119ae565b500161138a565b60405160208082528190610d1d908201856114e5565b60a435906001600160a01b038216820361121757565b600435906001600160a01b038216820361121757565b35906001600160a01b038216820361121757565b9181601f84011215611217578235916001600160401b038311611217576020838186019501011161121757565b3461121757610160366003190112611217576004356001600160a01b0381168103611217575060a03660231901126112175760803660c319011261121757610144356001600160401b038111611217576114d2903690600401611447565b5050630a85dc2960e01b5f908152600490fd5b90602080835192838152019201905f5b8181106115025750505090565b825180516001600160a01b03908116865260208083015182168188015260409283015180511515848901528082015160608901529092015116608086015260a090940193909201916001016114f5565b60c081019081106001600160401b0382111761156d57604052565b634e487b7160e01b5f52604160045260245ffd5b606081019081106001600160401b0382111761156d57604052565b6101c081019081106001600160401b0382111761156d57604052565b60a081019081106001600160401b0382111761156d57604052565b90601f801991011681019081106001600160401b0382111761156d57604052565b6001600160401b03811161156d5760051b60200190565b3590811515820361121757565b60c435906001600160a01b038216820361121757565b91908260609103126112175760405161164681611581565b60406116698183956116578161160b565b85526020810135602086015201611433565b910152565b9080601f83011215611217578135611685816115f4565b9261169360405194856115d3565b81845260208085019260051b82010192831161121757602001905b8282106116bb5750505090565b81358152602091820191016116ae565b34611217576101a0366003190112611217576004356001600160a01b0381168103611217575060a03660231901126112175760803660c319011261121757610184356001600160401b038111611217576114d2903690600401611447565b60e435908160020b820361121757565b35908160020b820361121757565b805180835260209291819084018484015e5f828201840152601f01601f1916010190565b610120600319820112611217576004356001600160a01b0381168103611217579160a06023198301126112175760249160c4359160e4359161010435906001600160401b038211611217576117c291600401611447565b9091565b6040906003190112611217576004359060243590565b9060058110156117ef5760060201905f90565b634e487b7160e01b5f52603260045260245ffd5b9060405161181081611581565b825460ff1615158152600183015460208201526002909201546001600160a01b03166040830152565b359062ffffff8216820361121757565b60a09060031901126112175760405190611862826115b8565b816004356001600160a01b03811681036112175781526024356001600160a01b038116810361121757602082015260443562ffffff811681036112175760408201526064358060020b8103611217576060820152608435906001600160a01b03821682036112175760800152565b91908260a0910312611217576040516118e8816115b8565b60806116698183956118f981611433565b855261190760208201611433565b602086015261191860408201611839565b604086015261192960608201611739565b606086015201611433565b9061193e826115f4565b61194b60405191826115d3565b828152809261195c601f19916115f4565b01905f5b82811061196c57505050565b60209060405161197b81611581565b5f81525f8382015260405161198f81611581565b5f81525f848201525f6040820152604082015282828501015201611960565b80518210156117ef5760209160051b010190565b906040516119cf81611581565b82546001600160a01b039081168252600184015416602082015291829060409061166990600201611803565b356001600160a01b03811681036112175790565b818102929181159184041417156111b157565b8115611a2c570490565b634e487b7160e01b5f52601260045260245ffd5b5f908015611af8578080600114611af057600214611ae95760016101338210166001600b83101617611adb579060019060025b60018111611a9f5750825f19048211611a8b57500290565b634e487b7160e01b81526011600452602490fd5b92805f19048111611ac75760018416611abe575b80029260011c611a73565b80920291611ab3565b634e487b7160e01b82526011600452602482fd5b6002900a919080611a8b5750565b5050600490565b505050600190565b50505f90565b60a0611b0b3660046118d0565b20604051602081019182526006604082015260408152611b2c6060826115d3565b519020604051631e2eaeaf60e01b815260048101919091526020816024817f00000000000000000000000000000000000000000000000000000000000000006001600160a01b03165afa908115611c3d575f91611c48575b506024356001600160a01b03811690818103611217575060405163313ce56760e01b815290602090829060049082905afa8015611c3d575f90611c00575b60ff91501690604d82116111b157611bfd91600a0a90611bf890611bf09083906001600160a01b0316611a0f565b60601c611a40565b611a22565b90565b506020813d602011611c35575b81611c1a602093836115d3565b81010312611217575160ff811681036112175760ff90611bc2565b3d9150611c0d565b6040513d5f823e3d90fd5b90506020813d602011611c72575b81611c63602093836115d3565b8101031261121757515f611b84565b3d9150611c56565b60a0611c8636836118d0565b20604051602081019182526006604082015260408152611ca76060826115d3565b519020604051631e2eaeaf60e01b81526004810191909152906020826024817f00000000000000000000000000000000000000000000000000000000000000006001600160a01b03165afa918215611c3d575f92611d69575b506004906020906001600160a01b0390611d1b9083016119fb565b166040519283809263313ce56760e01b82525afa8015611c3d575f90611c005760ff91501690604d82116111b157611bfd91600a0a90611bf890611bf09083906001600160a01b0316611a0f565b9091506020813d602011611d96575b81611d85602093836115d3565b810103126112175751906020611d00565b3d9150611d78565b9068010000000000000000811161156d57815491818155828210611dc157505050565b826005029260058404036111b157816005029160058304036111b1575f5260205f2091820191015b818110611df4575050565b80611e1860059260045f918281558260018201558260028201558260038201550155565b01611de9565b818114611f0757815491611e328383611d9e565b5f5260205f20905f5260205f205f915b838310611e4f5750505050565b600580826001938503611e69575b01920192019190611e42565b8054855460a086901b8690039182166001600160a01b03199182161787558583015486880180549190931691161790556002808201908601828703611eb0575b5050611e5d565b60ff611ec892541660ff801983541691151516179055565b60038101546003860155838060a01b036004820154166004860190858060a01b03166bffffffffffffffffffffffff60a01b8254161790555f80611ea9565b5050565b60a0611f183660046118d0565b205f525f60205260405f209060018060a01b03165f5260205260ff60405f20541690565b611f1860a09136906118d0565b600160ff1b81146111b1575f0390565b60e435935f939092908486121561225457816020918101031261121757356001600160a01b038116908190036112175780156121d15760a0611f9c3660246118d0565b209160c435801515810361121757156121b4576024356001600160a01b03811681036112175795611fcc90611f49565b957f00000000000000000000000000000000000000000000000000000000000000006001600160a01b0316803b1561121757604051630ab714fb60e11b81523060048201526001600160a01b03929092166024830152604482018890525f908290606490829084905af18015611c3d5761219f575b5060046040519161205183611581565b6001600160a01b031680835260208301938452926120703660c461162e565b604084810191825286895260036020908152818a20888b52858252828b20548b5290528820935184546001600160a01b039182166001600160a01b031991821617865592516001860180549190921693169290921790915551805160028401805460ff191691151560ff1691909117905560208181015160038501556040918201519290930180546001600160a01b0319166001600160a01b0393909316929092179091558386526004909152842080545f19811461218b57917f22ae42c515f6e47053b7c07c9717623b83a3486e8c79fc4bb587be680af46d609391600160409401905582519182526020820152a16001607f1b83101561217c576315d7892d60e21b9260801b9190565b6393dafdf160e01b8252600482fd5b634e487b7160e01b86526011600452602486fd5b6121ac9195505f906115d3565b5f935f612041565b6044356001600160a01b03811681036112175795611fcc90611f49565b509092506121e191506024611f3c565b156121f5576315d7892d60e21b905f908190565b60405162461bcd60e51b815260206004820152603160248201527f4f6e6c79207374616b6564207363686564756c6572732063616e207363686564604482015270756c65206261746368656420737761707360781b6064820152608490fd5b60405162461bcd60e51b815260206004820152602b60248201527f436c767220506f6f6c73206f6e6c7920776f726b20776974682065786163742060448201526a696e70757420737761707360a81b6064820152608490fd5b156122b457565b60405162461bcd60e51b815260206004820152601960248201527f426174636820696e646578206f7574206f6620626f756e6473000000000000006044820152606490fd5b1561230057565b60405162461bcd60e51b815260206004820152601660248201527510985d18da08185b1c9958591e48191a5cdc1d5d195960521b6044820152606490fd5b1561234557565b60405162461bcd60e51b815260206004820152602d60248201527f4f6e6c79207374616b6564207363686564756c6572732063616e2063616c6c2060448201526c3a3434b990333ab731ba34b7b760991b6064820152608490fd5b9190916123af600582106122ad565b60a06123bc3660046118d0565b205f5260016020526123d860ff6005610ddb8460405f206117dc565b60a06123e53660046118d0565b205f5260016020526123fa8160405f206117dc565b50906040519161240983611552565b80546001600160a01b031683526001810154602084019081526002820154604085019081526003830154606086019081526004840180549294939261244d816115f4565b9161245b60405193846115d3565b81835260208301905f5260205f205f915b8383106126ca575050505060ff60056080890195838752015416151560a0880152519384895103612685576124a2845151611934565b945f5b81811061264e57505060209495969798505f9061251860018060a01b0360025416945191519351955197612506604051998a9889978896632d71aaa160e11b885260048801526024870152604486015260a0606486015260a48501906114e5565b838103600319016084850152906114e5565b03925af1908115611c3d575f91612613575b50612585577f6fa932c34f3a2f26b3d71cd7f14eef0dcf0b6b2426f4d3bff1d1f3203e24e0069060a061255e3660046118d0565b209251604080519283526001600160a01b0390911660208301523390820152606090a25f90565b7fcebf0f8db135183c2664a13cc2d714c395091616d13c2a5a2e7efdd5c7e7ed949060a06125b43660046118d0565b205f52600160205260056125cb8260405f206117dc565b5001805460ff1916600117905560a06125e53660046118d0565b209251604080519283526001600160a01b0390911660208301523390820152606090a263763d9ef360e01b90565b90506020813d602011612646575b8161262e602093836115d3565b8101031261121757518015158103611217575f61252a565b3d9150612621565b806126688c6126616001948a51926119ae565b51906119ae565b51612673828a6119ae565b5261267e81896119ae565b50016124a5565b60405162461bcd60e51b815260206004820152601960248201527f496e76616c69642072656f72646572696e67206c656e677468000000000000006044820152606490fd5b600560206001926126da856119c2565b81520192019201919061246c565b60a06126f53660046118d0565b205f908152602081815260408083206001600160a01b03851684529091529020805460ff1916905560a061272a3660046118d0565b206001600160a01b03909116907f73fd05a55ddedaa5da34cf85f45d02fb984ecb7eefc2700b0ba11d5c705816225f80a3565b5f9182918160405192839283378101838152039082305af1903d156127d3573d916001600160401b03831161156d57604051926127a4601f8201601f1916602001856115d3565b83523d5f602085013e5b6127d157508051156127c257602081519101fd5b6314815f4760e31b5f5260045ffd5b565b6060916127ae565b6001600160a01b039182165f9081529282166020908152604093849020935163789add5560e11b815260048101949094529183916024918391165afa908115611c3d575f91612828575090565b90506020813d60201161284f575b81612843602093836115d3565b81010312611217575190565b3d9150612836565b9192906001600160a01b0316803b1561121757604051637a94c56560e11b81526001600160a01b0394851660048201529290931660248301526044820152905f908290606490829084905af18015611c3d576128b05750565b5f6127d1916115d3565b91906001600160a01b0316803b1561121757604051630b0d9c0960e01b81526001600160a01b03938416600482015291909216602482015260448101929092525f908290606490829084905af18015611c3d576128b0575056fea2646970667358221220a16da5cdecaf96f8075936fc8c2831edfd340a4d34e68e46e33c297100fd850264736f6c634300081a0033608034605657601f610b5538819003918201601f19168301916001600160401b03831184841017605a57808492604094855283398101031260565760208151910151905f55600155604051610ae6908161006f8239f35b5f80fd5b634e487b7160e01b5f52604160045260245ffdfe6080806040526004361015610012575f80fd5b5f3560e01c90816308eabdda14610128575080635ae355421461005d5763fadfa65b1461003d575f80fd5b34610059575f3660031901126100595760205f54604051908152f35b5f80fd5b346100595760a03660031901126100595760643567ffffffffffffffff81116100595761008e9036906004016101c0565b60843567ffffffffffffffff8111610059576100ae9036906004016101c0565b9080518251036100d7576020916100cd9160443560243560043561040e565b6040519015158152f35b60405162461bcd60e51b8152602060048201526024808201527f4f72646572696e6773206d757374206265206f66207468652073616d65206c656044820152630dccee8d60e31b6064820152608490fd5b34610059575f366003190112610059576020906001548152f35b6060810190811067ffffffffffffffff82111761015e57604052565b634e487b7160e01b5f52604160045260245ffd5b90601f8019910116810190811067ffffffffffffffff82111761015e57604052565b67ffffffffffffffff811161015e5760051b60200190565b35906001600160a01b038216820361005957565b81601f82011215610059578035906101d782610194565b926101e56040519485610172565b828452602060a081860194028301019181831161005957602001925b82841061020f575050505090565b83820360a081126100595760606040519161022983610142565b610232876101ac565b8352610240602088016101ac565b6020840152603f190112610059576040519161025b83610142565b60408601358015158103610059578352606086013560208401526080860135916001600160a01b03831683036100595783602093604060a09601526040820152815201930192610201565b906102b082610194565b6102bd6040519182610172565b82815280926102ce601f1991610194565b0190602036910137565b81810392915f1380158285131691841216176102f057565b634e487b7160e01b5f52601160045260245ffd5b80156103d4576001905f8113806001146103ad5715610387575b80029080805b8082116103585750505f81136001600160ff1b038390048211166102f0575f8112600160ff1b8390058212166102f0570290565b90926001600160ff1b0381900481116102f05781841661037e575b800292811c90610324565b80920291610373565b6001600160ff1b0381900581121561031e57634e487b7160e01b5f52601160045260245ffd5b506001600160ff1b0381900481111561031e57634e487b7160e01b5f52601160045260245ffd5b505f90565b8051156103e65760200190565b634e487b7160e01b5f52603260045260245ffd5b80518210156103e65760209160051b010190565b9261042792610421925f556001556106b0565b926106b0565b9173__$1c869ee616b205ee9d4cdaa1240f86f9b6$__936040519263555c6c2760e01b84526004840152602083602481885af4928315610557575f9361066f575b505f83126105155761047a82516102a6565b9161048585516102a6565b5f5492876001546001955b85518710156105625785949392916104ab918860209861080d565b96909160246040518095819363555c6c2760e01b835260048301525af4918215610557575f92610524575b505f821261051557670de0b6b3a76400006104fb6104f66001948c6102d8565b610304565b05610506888a6103fa565b52949501948991929394610490565b6393dafdf160e01b5f5260045ffd5b9091506020813d821161054f575b8161053f60209383610172565b810103126100595751905f6104d6565b3d9150610532565b6040513d5f823e3d90fd5b5050509093959192505f54926001546001945b845186101561062757610590859493928b928860209861080d565b96909160246040518095819363555c6c2760e01b835260048301525af4918215610557575f926105f4575b505f821261051557670de0b6b3a76400006105db6104f66001948c6102d8565b056105e6888a6103fa565b529495019490919293610575565b9091506020813d821161061f575b8161060f60209383610172565b810103126100595751905f6105bb565b3d9150610602565b5050959450955050505f5b83518110156106675761064581836103fa565b5161065082856103fa565b511161065e57600101610632565b50505050600190565b505050505f90565b9092506020813d60201161069b575b8161068b60209383610172565b810103126100595751915f610468565b3d915061067e565b919082018092116102f057565b90604051916106be83610142565b5f83525f60208401525f6040840152604051926106da84610142565b5f84525f60208501526040840152805191600183018093116102f0576106ff83610194565b9261070d6040519485610172565b80845261071c601f1991610194565b015f5b81811061079a5750505f5b825181101561075d5780610740600192856103fa565b5161074b82876103fa565b5261075681866103fa565b500161072a565b5092906107829061076d816103d9565b5190519061077b82866103fa565b52836103fa565b5061078c826103d9565b52610796816103d9565b5090565b6020906040516107a981610142565b5f81525f838201526040516107bd81610142565b5f81525f848201525f604082015260408201528282880101520161071f565b818102929181159184041417156102f057565b81156107f9570490565b634e487b7160e01b5f52601260045260245ffd5b939290916108279261082183838389610864565b9561093d565b90670de0b6b3a76400008302838104670de0b6b3a764000014841517156102f05782610852916107ef565b929190565b919082039182116102f057565b928161087357505050505f5490565b61088661088083866103fa565b516109ec565b6003811015610929576108b357506108a46108aa916108b0946103fa565b51610a72565b906106a3565b90565b6108c061088083866103fa565b6003811015610929576001146109155760405162461bcd60e51b815260206004820152601860248201527f496e76616c69642063616c6c20746f20595f63616368656400000000000000006044820152606490fd5b82610923926108b095610a18565b90610857565b634e487b7160e01b5f52602160045260245ffd5b92918161094e575050505060015490565b61095b61088083866103fa565b60038110156109295760010361097c57506108a46108aa916108b0946103fa565b9261098a61088083836103fa565b600381101561092957156109dd5760405162461bcd60e51b815260206004820152601860248201527f496e76616c69642063616c6c20746f20585f63616368656400000000000000006044820152606490fd5b6108b093610923928492610a8a565b60208101516001600160a01b031615610a1257604001515115610a0d575f90565b600190565b50600290565b91929092610a2961088085856103fa565b600381101561092957600114610a4157505050505f90565b83610a666108a492610a60610a6c956108aa6108a46108b09a8a6103fa565b906107ef565b936103fa565b906107dc565b6040015160200151600160ff1b81146102f0575f0390565b919092610a9a61088085856103fa565b60038110156109295715610a4157505050505f9056fea2646970667358221220dde020fbe8f663c47e1c557ba3c869f7d57a7634ca85f56fced0e6d4ae1bddc264736f6c634300081a0033","linkReferences":{"src/ClvrLn.sol":{"ClvrLn":[{"start":12569,"length":20}]}}},"methodIdentifiers":{"BATCH_DISPUTED_MAGIC_VALUE()":"c18526d4","BATCH_RETENTION_PERIOD()":"3ddbc2ea","STAKE_AMOUNT()":"faf5625f","addBatch((address,address,uint24,int24,address),(address,uint256,uint256,uint256,(address,address,(bool,int256,uint160))[],bool))":"35977258","afterAddLiquidity(address,(address,address,uint24,int24,address),(int24,int24,int256,bytes32),int256,int256,bytes)":"9f063efc","afterDonate(address,(address,address,uint24,int24,address),uint256,uint256,bytes)":"e1b4af69","afterInitialize(address,(address,address,uint24,int24,address),uint160,int24)":"6fe7e6eb","afterRemoveLiquidity(address,(address,address,uint24,int24,address),(int24,int24,int256,bytes32),int256,int256,bytes)":"6c2bbe7e","afterSwap(address,(address,address,uint24,int24,address),(bool,int256,uint160),int256,bytes)":"b47b2fb1","beforeAddLiquidity(address,(address,address,uint24,int24,address),(int24,int24,int256,bytes32),bytes)":"259982e5","beforeDonate(address,(address,address,uint24,int24,address),uint256,uint256,bytes)":"b6a8b0fa","beforeInitialize(address,(address,address,uint24,int24,address),uint160)":"dc98354e","beforeRemoveLiquidity(address,(address,address,uint24,int24,address),(int24,int24,int256,bytes32),bytes)":"21d0ee70","beforeSwap(address,(address,address,uint24,int24,address),(bool,int256,uint160),bytes)":"575e24b4","disputeBatch((address,address,uint24,int24,address),uint256,uint256[])":"6aa4e074","getCurrentPrice((address,address,uint24,int24,address))":"31e30225","getCurrentReserves((address,address,uint24,int24,address))":"291f8b21","getHookPermissions()":"c4e833ce","getScheduledSwaps((address,address,uint24,int24,address))":"23698ab3","isStakedScheduler((address,address,uint24,int24,address),address)":"428d1116","nextSwapKey(bytes32)":"3df56d00","poolManager()":"dc4c90d3","retainedBatches(bytes32,uint256)":"b90fbb1b","stake((address,address,uint24,int24,address),address)":"276ed7c7","stakedSchedulers(bytes32,address)":"a4117d98","swapParams(bytes32,uint256)":"db6a255f","unlockCallback(bytes)":"91dd7346","unstake((address,address,uint24,int24,address))":"9810439b"},"id":160}